:100000000C9462000C94E7030C94C0030C948A00D7
:100010000C948A000C948A000C948A000C945B0562
:100020000C948A000C948A000C948A000C948A0028
:100030000C948A000C948A000C948A000C948A0018
:100040000C9476030C948A000C9448020C942202BF
:100050000C948A000C948A000C948A000C948A00F8
:100060000C948A000C948A000000000024002700F1
:100070002A0000000000250028002B0000000008D6
:10008000000201000003040700000000000000005F
:10009000010204081020408001020408102001021F
:1000A000040810200000000023002600290004049A
:1000B0000404040404040202020202020303030310
:1000C00003032E1011241FBECFEFD8E0DEBFCDBF3B
:1000D00015E0A0E0B1E0EAE0F7E202C005900D9281
:1000E000A433B107D9F726E0A4E3B5E001C01D921F
:1000F000AF31B207E1F710E0C2E6D0E004C02197CB
:10010000FE010E943511C136D107C9F70E94EA08E5
:100110000C9483130C940000CF92DF92EF92FF9225
:100120000F931F93CF93DF936C017A018B01C0E093
:10013000D0E0CE15DF0589F0D8016D918D01D60193
:10014000ED91FC910190F081E02DC6010995892B7C
:1001500011F47E0102C02196ECCFC701DF91CF914F
:100160001F910F91FF90EF90DF90CF900895FC01C9
:10017000918D828D981761F0828DDF01A80FB11DDE
:100180005D968C91928D9F5F9F73928F90E0089502
:100190008FEF9FEF0895FC01918D828D981731F0BC
:1001A000828DE80FF11D858D90E008958FEF9FEF10
:1001B0000895FC01918D228D892F90E0805C9F4FE6
:1001C000821B91098F73992708958AE595E00E9413
:1001D000D90021E0892B09F420E0822F0895FC0149
:1001E000848DDF01A80FB11DA35ABF4F2C91848DC0
:1001F00090E001968F739927848FA689B7892C93F5
:10020000A089B1898C9180648C93938D848D98138F
:1002100006C00288F389E02D80818F7D8083089558
:10022000EF92FF920F931F93CF93DF93EC0181E046
:10023000888F9B8D8C8D981305C0E889F989808102
:1002400085FD24C0F62E0B8D10E00F5F1F4F0F733E
:100250001127E02E8C8DE8120CC00FB607FCFACFE8
:10026000E889F989808185FFF5CFCE010E94EF00F2
:10027000F1CF8B8DFE01E80FF11DE35AFF4FF082A5
:100280000B8FEA89FB898081806207C0EE89FF8934
:100290006083E889F98980818064808381E090E0CF
:1002A000DF91CF911F910F91FF90EF900895CF9321
:1002B000DF93EC01888D8823C9F0EA89FB8980816E
:1002C00085FD05C0A889B9898C9186FD0FC00FB640
:1002D00007FCF5CF808185FFF2CFA889B9898C9181
:1002E00085FFEDCFCE010E94EF00E7CFDF91CF91E8
:1002F000089580E090E0892B29F00E94E5008111AB
:100300000C9400000895833081F028F4813099F036
:100310008230A1F008958730A9F08830B9F0843098
:10032000D1F4809180008F7D03C0809180008F7711
:1003300080938000089584B58F7702C084B58F7D47
:1003400084BD08958091B0008F7703C08091B00084
:100350008F7D8093B00008953FB7F8948091560543
:1003600090915705A0915805B091590526B5A89BC5
:1003700005C02F3F19F00196A11DB11D3FBFBA2F37
:10038000A92F982F8827820F911DA11DB11DBC0197
:10039000CD0142E0660F771F881F991F4A95D1F75C
:1003A00008950895DC01ED91FD918081ED91FD911D
:1003B0009081ED91FD916C9163708E2309F06460E2
:1003C0009F2309F06860EFEEF1E0E60FF11D6595FF
:1003D00065956D936D917D918D919D91099423C04B
:1003E0001AC012C016C010C01EC009C014C013C06D
:1003F00006C019C009C00DC007C00DC014C06250AE
:100400007040804090400BC06150704080409040F0
:1004100006C06E5F01C06F5F7F4F8F4F9F4F9E93EF
:100420008E937E936E9308958091F9059091FA05CD
:100430000C94D2018091F7059091F8050C94D201AB
:100440000E947E131F920F920FB60F9211242F93CA
:100450003F934F935F936F937F938F939F93AF934C
:10046000BF93EF93FF938AE595E00E94EF00FF9121
:10047000EF91BF91AF919F918F917F916F915F911C
:100480004F913F912F910F900FBE0F901F90189595
:100490001F920F920FB60F9211242F938F939F9359
:1004A000EF93FF93E0916A05F0916B058081E091F5
:1004B0007005F091710582FD12C0908180917305E5
:1004C0008F5F8F7320917405821751F0E09173054F
:1004D000F0E0E65AFA4F958F8093730501C0808152
:1004E000FF91EF919F918F912F910F900FBE0F90E1
:1004F0001F901895CF93DF93282F30E0F901E4582F
:10050000FF4F8491F901E057FF4FD491F901E25573
:10051000FF4FC491CC2391F081110E948301EC2FF5
:10052000F0E0EE0FFF1FEC55FF4FA591B491EC9159
:10053000ED2381E090E021F480E002C080E090E0D3
:10054000DF91CF9108951F93CF93DF93282F30E051
:10055000F901E458FF4F8491F901E057FF4FD4911E
:10056000F901E255FF4FC491CC23C9F0162F811138
:100570000E948301EC2FF0E0EE0FFF1FEE58FF4FBB
:10058000A591B4918FB7F894111105C09C91ED2FEE
:10059000E095E92302C0EC91ED2BEC938FBFDF9146
:1005A000CF911F910895CF93DF93EC0160E08E818E
:1005B0000E94A30261E08E810E94A30260E08E810E
:1005C0000E94A3028BE891E00197F1F7DF91CF91B0
:1005D0000895CF93DF9390E0FC01E057FF4F249103
:1005E000FC01E255FF4F8491882361F190E0880F70
:1005F000991FFC01E859FF4FC591D491FC01EE58B9
:10060000FF4FA591B491611109C09FB7F8948881FB
:10061000209582238883EC912E230BC0623061F4F5
:100620009FB7F8943881822F809583238883EC913B
:100630002E2B2C939FBF06C08FB7F894E8812E2BEA
:1006400028838FBFDF91CF9108958E3008F08E50B0
:100650008770806480937C0080917A0080648093AE
:100660007A0080917A0086FDFCCF809178002091FD
:10067000790090E0922B08958F929F92AF92BF9253
:10068000CF92DF92EF92FF926B017C010E94AC014E
:100690004B015C01C114D104E104F104F1F00E94AA
:1006A000AC01DC01CB0188199909AA09BB09883E74
:1006B0009340A105B10570F321E0C21AD108E10809
:1006C000F10888EE880E83E0981EA11CB11CC114AD
:1006D000D104E104F10419F7DDCFFF90EF90DF9032
:1006E000CF90BF90AF909F908F9008951F920F92E0
:1006F0000FB60F9211242F933F938F939F93AF9335
:10070000BF938091520590915305A0915405B091EB
:1007100055053091510523E0230F2D3720F4019624
:10072000A11DB11D05C026E8230F0296A11DB11D14
:10073000209351058093520590935305A09354053F
:10074000B09355058091560590915705A091580595
:10075000B09159050196A11DB11D80935605909346
:100760005705A0935805B0935905BF91AF919F913C
:100770008F913F912F910F900FBE0F901F90189562
:100780001F920F920FB60F9211242F933F934F9306
:100790005F936F937F938F939F93AF93BF93EF93E9
:1007A000FF93E0917201F09173010995FF91EF9130
:1007B000BF91AF919F918F917F916F915F914F9179
:1007C0003F912F910F900FBE0F901F9018951F9281
:1007D0000F920FB60F9211242F933F934F935F9375
:1007E0006F937F938F939F93AF93BF93EF93FF93F9
:1007F000E0917001F09171010995FF91EF91BF9126
:10080000AF919F918F917F916F915F914F913F91A8
:100810002F910F900FBE0F901F901895CF92DF92DF
:10082000EF92FF920F931F93CF93DF937C016C01A4
:1008300087E0C80ED11CC0E0D0E0062F10E0B80160
:100840000C2E02C0759567950A94E2F76170F60167
:1008500081916F010E94A3022196C430D10579F7DE
:10086000C701DF91CF911F910F91FF90EF90DF9023
:10087000CF900C94D302CF92DF92EF92FF920F931E
:100880001F93CF93DF93EC01F62E642F8C810E948F
:10089000A3028D818F3F19F060E00E94A3028F8533
:1008A0000F2D10E084FF25C06E0187E0C80ED11C1B
:1008B000E12CF12CB8010E2C02C0759567950A94B5
:1008C000E2F76170F60181916F010E94A302FFEFD0
:1008D000EF1AFF0A88E0E816F10461F7CE01DF9114
:1008E000CF911F910F91FF90EF90DF90CF900C94DC
:1008F000D302B80184E0759567958A95E1F7CE013A
:100900000E940E046F2DCE01DF91CF911F910F91A8
:10091000FF90EF90DF90CF900C940E0441E00E9486
:100920003B0481E090E0089540E00C943B0480910A
:100930001E06823030F4F89483E196E00E94D201E2
:1009400001C0F89480911A0690911B06A0911C0694
:10095000B0911D067894843091056CF0F894109253
:100960001A0610921B0610921C0610921D0678940F
:1009700081E090E008958D3F9F4F6CF4F8941092C1
:100980001A0610921B0610921C0610921D067894EF
:100990008FEF9FEF089580E090E00895CF92DF926F
:1009A000EF92FF920F931F93CF93DF93EC0180910F
:1009B0006E01813021F09CEF980F933058F4BE0106
:1009C000DD0F880B990B0E94571220E030E04AE7B8
:1009D00054E417C08230F9F4209711F1BE01615040
:1009E0007109072E000C880B990B0E9457129B016E
:1009F000AC01609134057091350580913605909178
:100A000037050E94AD116B017C018091000190912E
:100A10000101BC0137C0833009F044C0209729F49C
:100A200010928B0010928A003DC0C0903405D09087
:100A30003505E0903605F090370520E030E0A9015B
:100A4000C701B6010E94A811009100011091010197
:100A5000811105C010938B0000938A0023C0BE0152
:100A6000DD0F880B990B0E94571220E030E04AE717
:100A700054E40E94AD11A70196010E94AD116B01D3
:100A80007C01B80180E090E00E9455129B01AC010E
:100A9000C701B6010E940C130E94261270938B00AE
:100AA00060938A00DF91CF911F910F91FF90EF909B
:100AB000DF90CF9008951F920F920FB60F921124DE
:100AC0008F929F92AF92BF92CF92DF92EF92FF925E
:100AD0002F933F934F935F936F937F938F939F9346
:100AE000AF93BF93EF93FF9380916E019FEF980FA9
:100AF000933008F481C160913805709139058530D3
:100B0000D1F580913A0590913B056817790708F473
:100B100079C1F0906F01FF2089F060E089E00E94C8
:100B2000A302809163019091640190933B058093AF
:100B30003A05809167019091680110C061E089E0F9
:100B40000E94A302809165019091660190933B05FC
:100B500080933A058091690190916A0190936D01AB
:100B600080936C0181E08F2580936F01109239058D
:100B70001092380541C1863009F09CC020913A0599
:100B800030913B0580913A016217730708F449C020
:100B9000882349F060E089E00E94A302E0905A01B6
:100BA000F0905B0108C061E089E00E94A302E09040
:100BB0005C01F0905D01F0923B05E0923A05809176
:100BC0005E0190915F01E114F10429F490936D01AD
:100BD00080936C011FC06091600170916101681B7E
:100BE000790B80E090E00E9455124B015C01B70147
:100BF00080E090E00E9455129B01AC01C501B40158
:100C00000E94AD1160934D0570934E0580934F0582
:100C10009093500590913A0181E0892780933A01A1
:100C2000A5CF6B01E12CF12C8823F9F060915E01D6
:100C300070915F0180E090E00E9455124B015C01D1
:100C4000C701B6010E94551220914D0530914E0505
:100C500040914F05509150050E940C139B01AC012F
:100C6000C501B4010E943C111EC0609160017091E9
:100C7000610180E090E00E9455124B015C01C701C8
:100C8000B6010E94551220914D0530914E054091BC
:100C90004F05509150050E940C139B01AC01C501FA
:100CA000B4010E943B110E94261270936D01609363
:100CB0006C01A2C0843009F0A5C080913A059091E2
:100CC0003B056817790708F450C060915301709193
:100CD000540170933B0560933A0580E090E00E94D8
:100CE00055129B01AC0160E070E084EB93E40E943C
:100CF000AD1160934D0570934E0580934F05909311
:100D00005005609155017091560180E090E00E947D
:100D100055126B017C018091570190915801BC01E3
:100D200080E090E00E945512A70196010E943B11BD
:100D300020E030E040E05FE30E940C139B01AC0137
:100D40006093490570934A0580934B0590934C0539
:100D5000C701B6010E943C1160934505709346059A
:100D6000809347059093480501CF80E090E00E9472
:100D7000551220914D0530914E0540914F055091EF
:100D800050050E940C130E941F12660F771FFB0173
:100D9000EC58FE4FE080F180B7010F2C000C880B5F
:100DA000990B0E94571220E030E048EC52E40E9478
:100DB000AD112091490530914A0540914B05509164
:100DC0004C050E940C132091450530914605409139
:100DD0004705509148050E943C110E9426127093CD
:100DE0006D0160936C011E141F0414F461E001C0D6
:100DF00060E089E00E94A30280916C0190916D01F6
:100E00000E94CE0480913805909139050196909307
:100E1000390580933805FF91EF91BF91AF919F9174
:100E20008F917F916F915F914F913F912F91FF90A3
:100E3000EF90DF90CF90BF90AF909F908F900F90EA
:100E40000FBE0F901F9018956115710579F0FB0189
:100E500001900020E9F73197AF01461B570BDC01E9
:100E6000ED91FC910280F381E02D099480E090E007
:100E7000089561E08BEF95E00E9494048BE39FE17D
:100E80000197F1F760E089E00E94970861E08BEF3D
:100E900095E00E948E0460E08FE00E9497086FE268
:100EA00075E08BEF95E00E94240761E089E00E94E5
:100EB000970862E08BEF95E00E948E0461E08EE07F
:100EC0000E94970863E874E08BEF95E00C94240788
:100ED000EF92FF920F931F93CF93DF93EC01623059
:100EE00018F08F8588608F876B8B1C8A80E48D8BD0
:100EF00080E18E8B80E58F8B61E08C810E94E9021E
:100F00008D818F3F19F061E00E94E90261E08E81DE
:100F10000E94E9027E0187E0E80EF11C00E010E08B
:100F20008F8584FD03C084E090E002C088E090E0FB
:100F3000081719074CF461E0F70181917F010E94C5
:100F4000E9020F5F1F4FECCF8BE39DE00197F1F7B4
:100F500060E08C810E94A30260E08E810E94A30267
:100F60008D818F3F19F060E00E94A3026F8564FDC0
:100F70001DC063E0CE010E940E040BE416E4C8011C
:100F80000197F1F763E0CE010E940E04C8010197BA
:100F9000F1F763E0CE010E940E0483E592E0019731
:100FA000F1F762E0CE010E940E0416C06062CE012D
:100FB0000E9494048BE496E40197F1F76F856062D8
:100FC000CE010E94940483E592E00197F1F76F85CA
:100FD0006062CE010E9494046F856062CE010E941F
:100FE000940484E0888B6CE0CE010E94940461E05C
:100FF000CE010E9494048BE39FE10197F1F782E018
:10100000898B66E0CE01DF91CF911F910F91FF9008
:10101000EF900C949404EF92FF920F931F93CF9351
:10102000DF938C01C0E0D0E084E0E82EF12C083E94
:1010300083E018074CF4043611054CF40A3011050E
:101040004CF421E030E008C024E030E005C023E0AB
:1010500030E002C022E030E0C701821B930BC817CA
:10106000D90744F46DE275E08BEF95E00E94240708
:101070002196DDCFDF91CF911F910F91FF90EF90DF
:101080000895CF93DF93BC018AE595E00E94240781
:10109000EC0161E375E08AE595E00E9424078C0F7E
:1010A0009D1FDF91CF9108958F929F92AF92BF9233
:1010B0000F931F93CF93DF93CDB7DEB7A1970FB6F2
:1010C000F894DEBF0FBECDBF19A2423008F44AE04B
:1010D0008E010F5D1F4F842E912CA12CB12CA501E8
:1010E00094010E941311E62FB901CA0101501109A0
:1010F000EA3014F4E05D01C0E95CD801EC93232BE5
:10110000242B252B61F7B8018BEF95E00E94240773
:10111000A1960FB6F894DEBF0FBECDBFDF91CF9181
:101120001F910F91BF90AF909F908F900895643062
:1011300008F063E090910E06691710F06FEF690FE9
:10114000E62FF0E0E550FA4F9489682F690F606848
:101150008BEF95E00C949404EF92FF920F931F9302
:10116000CF93DF931F92CDB7DEB7162F877028E09D
:10117000829FC0011124682F60648BEF95E0798312
:101180000E949404E12E7981F72E8701085F1F4F9A
:10119000F70161917F018BEF95E00E948E04E016CC
:1011A000F106B1F70F90DF91CF911F910F91FF9052
:1011B000EF90089562E08BEF95E00E9494048BE33A
:1011C0009FE10197F1F70895BC0180E090E04AE0CB
:1011D0000C945408789484B5826084BD84B5816091
:1011E00084BD85B5826085BD85B5816085BD8091F2
:1011F0006E00816080936E0010928100809181006A
:101200008260809381008091810081608093810061
:10121000809180008160809380008091B100846023
:101220008093B1008091B00081608093B000809184
:101230007A00846080937A0080917A008260809343
:101240007A0080917A00816080937A0080917A00A0
:10125000806880937A001092C100E0916A05F09155
:101260006B0582E08083E0916605F091670510824E
:10127000E0916805F091690580E180831092720524
:10128000E0916E05F0916F0586E08083E0916C053A
:10129000F0916D05808180618083E0916C05F09113
:1012A0006D05808188608083E0916C05F0916D050B
:1012B000808180688083E0916C05F0916D0580816C
:1012C0008F7D808384B1866084B982EA80938000B8
:1012D00089E1809381008FEF9FEF90938700809347
:1012E0008600F8941092B0001092B1001092B200F3
:1012F00089EF8093B3008091B00082608093B0004A
:101300008091B10084608093B100789462E08BEFAB
:1013100095E00E9468076CE574E08BEF95E00E9411
:10132000240761E080E00E9497086BE674E08BEF91
:1013300095E00E94240762E271E080E00E94AC0820
:101340006AE171E081E00E94AC0862E171E082E054
:101350000E94AC086AE071E083E00E94AC0862E0A1
:1013600071E084E00E94AC086CED75E080E090E0F4
:101370000E943C0369E081E00E94E90268E080E0AD
:101380000E94E90261E088E00E94A30263E180E03C
:101390000E94E90261E083E10E94A30262E180E031
:1013A0000E94E90261E082E10E94A30288EC97E3D7
:1013B00090930101809300010E94390760E080E072
:1013C0000E9497086CE774E08BEF95E00E94240779
:1013D0008AEFA82EB12C94EF892E9924939422E3BE
:1013E000222E312CCFE1D9E21BE005E180916E0184
:1013F000813099F50E9497041816190654F48091CB
:101400006C0190916D01843C29E0920780F449962B
:101410000AC0892B61F080916C0190916D01893136
:10142000910528F0499790936D0180936C0161E0DC
:1014300080E00E94970880916C0190916D010E945C
:101440000B0880916C0190916D010E94E40863E8A3
:1014500074E08BEF95E00E94240780916E0182304A
:1014600031F50E949704882369F080916C01909176
:101470006D01843F21E0920728F4059690936D0159
:1014800080936C0161E080E00E94970880916C017C
:1014900090916D010E940B0880916C0190916D01FB
:1014A0000E94E40860E08BEF95E00E948E0480913A
:1014B0006E01833039F50E949704882369F080918A
:1014C0006C0190916D01883823E1920728F44496CD
:1014D00090936D0180936C0161E080E00E94970819
:1014E00080916C0190916D010E940B0880916C01BC
:1014F00090916D010E94E40866E874E08BEF95E03E
:101500000E94240780916E01853009F0F9C00E9485
:101510009704009709F480C020916B01243169F190
:1015200018F42A3041F078C02E3109F446C0283230
:1015300009F45BC071C02091690130916A011816ED
:10154000190644F42C3D85E0380708F065C02E5C90
:101550003F4F0EC02233310508F45EC08091670111
:10156000909168018217930708F056C02253310901
:1015700030936A01209369014FC020916701309137
:101580006801181619067CF42C3D85E0380708F030
:1015900043C08091690190916A0128173907E0F5ED
:1015A0002E5C3F4F05C022333105B0F12253310983
:1015B00030936801209367012FC02091650130911D
:1015C0006601181619063CF4203D87E0380720F51F
:1015D0002C593F4F05C024363105F0F0245631090F
:1015E000309366012093650117C02091630130910B
:1015F0006401181619063CF4203D87E0380760F4B2
:101600002C593F4F05C02436310530F0245631099E
:10161000309364012093630161E080E00E949708A9
:1016200080916B018431A9F1C8F48A3009F068C057
:1016300069E874E08BEF95E00E94240763E08BEF8C
:1016400095E00E948E048091690190916A010E9448
:101650000B088091690190916A0130C08E3199F137
:10166000883209F04DC06EEF74E08BEF95E00E9478
:10167000240764E08BEF95E00E948E048091630163
:10168000909164010E940B08809163019091640124
:101690002FC069E874E08BEF95E00E94240764E0B6
:1016A0008BEF95E00E948E04809167019091680114
:1016B0000E940B0880916701909168010E94E408E4
:1016C00063E874E019C06EEF74E08BEF95E00E9460
:1016D000240763E08BEF95E00E948E048091650102
:1016E000909166010E940B088091650190916601BE
:1016F0000E94E4086BE874E08BEF95E00E942407F9
:1017000080916E01863009F0F9C00E94970400971D
:1017100009F480C020916201253169F118F42B3061
:1017200041F078C02F3109F446C0293209F45BC07A
:1017300071C020916001309161011816190644F4BE
:101740002C3D85E0380708F065C02E5C3F4F0EC089
:101750002233310508F45EC080915E0190915F01F3
:101760008217930708F056C0225331093093610164
:10177000209360014FC020915E0130915F011816E7
:1017800019067CF42C3D85E0380708F043C08091B1
:1017900060019091610128173907E0F52E5C3F4FF9
:1017A00005C022333105B0F12253310930935F0176
:1017B00020935E012FC020915C0130915D011816CD
:1017C00019063CF4203D87E0380720F52C593F4F9F
:1017D00005C024363105F0F02456310930935D01FF
:1017E00020935C0117C020915A0130915B011816BB
:1017F00019063CF4203D87E0380760F42C593F4F30
:1018000005C02436310530F02456310930935B0190
:1018100020935A0161E080E00E9497088091620164
:101820008531A9F1C8F48B3009F068C069E874E02B
:101830008BEF95E00E94240763E08BEF95E00E9418
:101840008E0480916001909161010E940B0880914B
:1018500060019091610130C08F3199F1893209F0B6
:101860004DC06EEF74E08BEF95E00E94240764E0BA
:101870008BEF95E00E948E0480915A0190915B015C
:101880000E940B0880915A0190915B012FC069E87A
:1018900074E08BEF95E00E94240764E08BEF95E005
:1018A0000E948E0480915E0190915F010E940B085E
:1018B00080915E0190915F010E94E40863E874E00A
:1018C00019C06EEF74E08BEF95E00E94240763E08F
:1018D0008BEF95E00E948E0480915C0190915D01F8
:1018E0000E940B0880915C0190915D010E94E408C8
:1018F0006BE874E08BEF95E00E94240780916E0105
:10190000843009F0BBC00E949704009709F461C0BD
:1019100020915901293139F1233209F443C02F3084
:1019200009F057C020915701309158011816190637
:1019300044F42C3D85E0380708F04BC02E5C3F4F47
:101940000DC02233310508F444C0809155019091B7
:10195000560182179307E8F5225331093093580155
:101960002093570136C02091550130915601181629
:10197000190674F42C3D85E0380758F5809157011D
:10198000909158012817390720F52E5C3F4F05C06C
:1019900022333105F0F02253310930935601209360
:1019A000550117C0209153013091540118161906A2
:1019B0003CF4203D87E0380760F42C593F4F05C0C8
:1019C0002436310530F024563109309354012093E8
:1019D000530161E080E00E949708809159018931AC
:1019E000D9F0833299F18F3009F048C069E874E08A
:1019F0008BEF95E00E94240763E08BEF95E00E9457
:101A00008E0480915701909158010E940B0880919B
:101A100057019091580115C069E874E08BEF95E08B
:101A20000E94240764E08BEF95E00E948E04809171
:101A30005501909156010E940B088091550190919B
:101A400056010E94E40863E874E014C06EE874E094
:101A50008BEF95E00E9424078091530190915401EF
:101A60000E940B0880915301909154010E94E40858
:101A70006BE874E08BEF95E00E9424072091340519
:101A800030913505409136055091370560913C0500
:101A900070913D0580913E0590913F050E943B115C
:101AA0006B017C018FE00E942503BC01990F880B1C
:101AB000990B0E94571220E030E040E85AE30E9460
:101AC0000C1320E030E040EA50E40E940C1329E8B7
:101AD00032ED4EE550E40E940C139B01AC01C701AE
:101AE000B6010E943C112B013C0160933C057093B0
:101AF0003D0580933E0590933F05609334057093B8
:101B000035058093360590933705E0904005F090B9
:101B100041058091420590914305E81AF90A80E158
:101B20000E942503BC01990F880B990B0E94571244
:101B300020E030E040E85AE30E940C1320E030E45B
:101B40004CE955E40E940C130E941F126E0D7F1D7C
:101B5000709341056093400570934305609342057F
:101B600060E08AE00E94970820E030E040E251E423
:101B7000C301B2010E94071387FD69C2C0903405FA
:101B8000D0903505E0903605F0903705A701960115
:101B9000C701B6010E947913882319F061E974E046
:101BA0001AC026013701E89477F82FEF3FEF4FE78F
:101BB0005FE7C301B2010E947913811111C02FEFB9
:101BC0003FEF4FE75FE7C301B2010E94A81118166B
:101BD0003CF465E974E08BEF95E00E9424077DC03A
:101BE0002FEF3FEF4FE75FE4C701B6010E940713F5
:101BF00018161CF469E974E0EECF2FEF3FEF4FE7C2
:101C00005FECC701B6010E94A81187FDF3CF20E069
:101C100030E0A901C701B6010E94A81187FF0FC0DB
:101C2000E091FB05F091FC050190F081E02D6DE263
:101C30008BEF95E00995F7FAF094F7F8F0942AE025
:101C400037ED43EA5BE3C701B6010E943C112B016B
:101C50003C010E9426126B017C010E9455129B01DF
:101C6000AC01C301B2010E943B112B013C014AE0CF
:101C7000C701B6010E9454086DE974E08BEF95E04E
:101C80000E94240720E030E040E251E4C301B201A9
:101C90000E940C136B017C010E9426122B01612C07
:101CA000712C4AE0C301B2010E945408C301B20181
:101CB0000E9455129B01AC01C701B6010E943B1165
:101CC00020E030E040E251E40E940C130E94261212
:101CD00080E090E04AE00E94540861E08AE00E94BF
:101CE000970880914205909143050E940B08C0908F
:101CF0004205D09043050D2C000CEE08FF08F7FEBE
:101D000014C0E091FB05F091FC050190F081E02DFD
:101D10006DE28BEF95E0099566277727CB016C196B
:101D20007D098E099F094AE003C04AE0C701B60158
:101D30000E94540883E10E947A02892B09F0FCC0BA
:101D400080E090E00E94CE04F89410921A0610925F
:101D50001B0610921C0610921D06789410924405E2
:101D6000109270008FE994E00E94410860E089E0E1
:101D70000E94A3020E94390760E080E00E94970859
:101D800080916E01813091F48FEA94E00E944108C5
:101D900022E020936E0163EC74E08BEF95E00E94EB
:101DA000240730926D0120926C01C0C0823091F402
:101DB0008AEC94E00E94410883E080936E0169ED13
:101DC00074E08BEF95E00E94240790926D01809261
:101DD0006C01ACC0833099F580EE94E00E9441081C
:101DE00085E080936E016BE471E00E94AC080E9474
:101DF000DA0865E08BEF95E00E948E0465E08BEFDA
:101E000095E00E948E0465E08BEF95E00E948E04C1
:101E10006FE874E08BEF95E00E94240780916501E4
:101E20009091660190933B0580933A0580916901FA
:101E300090916A0190936D0180936C0130C0853060
:101E400099F58FEE94E00E94410886E080936E0140
:101E500063E471E085E00E94AC086BE371E086E02A
:101E60000E94AC080E94DA0865E08BEF95E00E94C2
:101E70008E0466E08BEF95E00E948E0465E08BEFA8
:101E800095E00E948E046FE874E08BEF95E00E946D
:101E9000240710923A0110923B0510923A051092D5
:101EA00039051092380542C0863069F580E095E02A
:101EB0000E94410884E080936E0162E371E085E056
:101EC0000E94AC086AE271E086E00E94AC080E94C1
:101ED000DA0865E08BEF95E00E948E0466E08BEFF8
:101EE00095E00E948E0465E08BEF95E00E948E04E1
:101EF0006FE874E08BEF95E00E94240710926D016B
:101F000010926C0113C0843089F48DE095E00E943A
:101F1000410881E080936E016CE774E08BEF95E0FF
:101F20000E942407B0926D01A0926C0160E971E0FB
:101F300080E090E00E943C0382E10E947A02892BBB
:101F400051F59091440581E08927809344058823C9
:101F500071F061E089E00E94A302809170008260CC
:101F6000809370008EE195E00E9441080EC060E011
:101F700089E00E94A302109270008FE994E00E9411
:101F8000410880E090E00E94CE0460E971E080E0CA
:101F900090E00E943C0388E00E947A02892B09F0BD
:101FA0004DC080916E018530B9F480916B01843110
:101FB00059F020F48A30E1F584E10BC08E3141F014
:101FC0008832B1F58AE005C02EE120936B0130C064
:101FD00088E280936B012CC08630B9F48091620155
:101FE000853169F028F48B3019F50093620120C027
:101FF0008F3141F08932E1F41093620119C0C0932E
:10200000620116C0D093620113C0843089F48091BC
:102010005901893141F0833241F08F3049F429E18F
:102020002093590105C083E201C08FE080935901DC
:1020300068EC70E080E090E00E943C0364E670E0B1
:1020400080E090E00E943C030E947901CFC96DE2DC
:1020500075E08BEF95E00E94240790CDCF93DF933E
:1020600010925D0510925C0588EE93E0A0E0B0E070
:1020700080935E0590935F05A0936005B093610522
:1020800088E494E090935B0580935A0585EC90E09A
:10209000909367058093660584EC90E090936905C2
:1020A0008093680580EC90E090936B0580936A05BF
:1020B00081EC90E090936D0580936C0582EC90E04C
:1020C00090936F0580936E0586EC90E09093710578
:1020D0008093700510927305109274051092750527
:1020E0001092760562E082E00E94E90262E083E0FD
:1020F0000E94E902E0EBF0E0E491F0E0EE0FFF1F58
:10210000EC55FF4FA591B491B0931406A09313061C
:10211000E2E9F0E0849180931706E1EBF0E0E491CE
:10212000F0E0EE0FFF1FEC55FF4FC591D491D09317
:102130001606C0931506E3E9F0E0E491E093180673
:1021400010921A0610921B0610921C0610921D0681
:10215000EBE3FFE13197F1F7EC91E82381E009F43B
:1021600080E0288190911806922309F0826023E193
:1021700036E0809319063093F8052093F7058AE13D
:1021800092E09093710180937001809169008C7F3F
:10219000816080936900E89A81E080931E06309305
:1021A000FA052093F90584E192E0909373018093FE
:1021B000720180916900837F846080936900E99A4D
:1021C00082E080931E061092FE051092FD0588E5C0
:1021D00094E09093FC058093FB058CE08093FF05D1
:1021E0008FEF809300068BE08093010687E0809359
:1021F000020686E08093030685E08093040684E06F
:1022000080930506109206061092070610920806A3
:102210001092090610920A0661E08BEF95E0DF91BB
:10222000CF910C946807A1E21A2EAA1BBB1BFD01DB
:102230000DC0AA1FBB1FEE1FFF1FA217B307E407A5
:10224000F50720F0A21BB30BE40BF50B661F771FFD
:10225000881F991F1A9469F76095709580959095DD
:102260009B01AC01BD01CF010895EE0FFF1F05904A
:10227000F491E02D09945058BB27AA270E945311CE
:102280000C94CD120E94BF1238F00E94C61220F0AA
:1022900039F49F3F19F426F40C94BC120EF4E09527
:1022A000E7FB0C94B612E92F0E94DE1258F3BA171E
:1022B000620773078407950720F079F4A6F50C945C
:1022C00000130EF4E0950B2EBA2FA02D0B01B901CF
:1022D00090010C01CA01A0011124FF27591B99F09C
:1022E000593F50F4503E68F11A16F040A22F232FA8
:1022F000342F4427585FF3CF469537952795A795F8
:10230000F0405395C9F77EF41F16BA0B620B730B9E
:10231000840BBAF09150A1F0FF0FBB1F661F771F0F
:10232000881FC2F70EC0BA0F621F731F841F48F4C4
:10233000879577956795B795F7959E3F08F0B0CF4D
:102340009395880F08F09927EE0F97958795089534
:102350000E94921208F481E008950E94C1110C9429
:10236000CD120E94C61258F00E94BF1240F029F40C
:102370005F3F29F00C94B61251110C9401130C9488
:10238000BC120E94DE1268F39923B1F3552391F336
:10239000951B550BBB27AA2762177307840738F0D4
:1023A0009F5F5F4F220F331F441FAA1FA9F335D031
:1023B0000E2E3AF0E0E832D091505040E695001CE5
:1023C000CAF72BD0FE2F29D0660F771F881FBB1F9F
:1023D000261737074807AB07B0E809F0BB0B802D7D
:1023E000BF01FF2793585F4F3AF09E3F510578F0A9
:1023F0000C94B6120C9401135F3FE4F3983ED4F3AF
:10240000869577956795B795F7959F5FC9F7880F7C
:10241000911D9695879597F90895E1E0660F771FCE
:10242000881FBB1F621773078407BA0720F0621B5F
:10243000730B840BBA0BEE1F88F7E09508950E948A
:1024400026126894B1110C94011308950E94E612AB
:1024500088F09F5798F0B92F9927B751B0F0E1F065
:10246000660F771F881F991F1AF0BA95C9F714C015
:10247000B13091F00E940013B1E008950C94001364
:10248000672F782F8827B85F39F0B93FCCF386954E
:1024900077956795B395D9F73EF4909580957095AB
:1024A00061957F4F8F4F9F4F0895E89409C097FB28
:1024B0003EF490958095709561957F4F8F4F9F4F1B
:1024C0009923A9F0F92F96E9BB279395F69587955F
:1024D00077956795B795F111F8CFFAF4BB0F11F422
:1024E00060FF1BC06F5F7F4F8F4F9F4F16C08823C9
:1024F00011F096E911C0772321F09EE8872F762FFF
:1025000005C0662371F096E8862F70E060E02AF03F
:102510009A95660F771F881FDAF7880F969587952B
:1025200097F90895990F0008550FAA0BE0E8FEEF00
:1025300016161706E807F907C0F012161306E40787
:10254000F50798F0621B730B840B950B39F40A2680
:1025500061F0232B242B252B21F408950A2609F45E
:10256000A140A6958FEF811D811D089597F99F6762
:1025700080E870E060E008959FEF80EC089500240B
:102580000A941616170618060906089500240A94D8
:1025900012161306140605060895092E0394000C5E
:1025A00011F4882352F0BB0F40F4BF2B11F460FFED
:1025B00004C06F5F7F4F8F4F9F4F089557FD905816
:1025C000440F551F59F05F3F71F04795880F97FBF7
:1025D000991F61F09F3F79F08795089512161306B1
:1025E0001406551FF2CF4695F1DF08C016161706E0
:1025F0001806991FF1CF8695710561050894089515
:10260000E894BB2766277727CB0197F908950E94A6
:10261000921208F48FEF08950E941F130C94CD12AC
:102620000E94BF1238F00E94C61220F0952311F0CC
:102630000C94B6120C94BC1211240C9401130E9439
:10264000DE1270F3959FC1F3950F50E0551F629F06
:10265000F001729FBB27F00DB11D639FAA27F00DFB
:10266000B11DAA1F649F6627B00DA11D661F829F22
:102670002227B00DA11D621F739FB00DA11D621F07
:10268000839FA00D611D221F749F3327A00D611D24
:10269000231F849F600D211D822F762F6A2F112406
:1026A0009F5750409AF0F1F088234AF0EE0FFF1F39
:1026B000BB1F661F771F881F91505040A9F79E3F90
:1026C000510580F00C94B6120C9401135F3FE4F3B3
:1026D000983ED4F3869577956795B795F795E795E6
:1026E0009F5FC1F7FE2B880F911D9695879597F9EF
:1026F00008950E949212880B990B089581E090E052
:0A270000F8940C948313F894FFCFB3
:10270A00FFFF10101D001D141C00141C15001D08CD
:10271A001C001C08081C0110111C141414080110B8
:10272A00111C000E1111110A1B00000000000011FB
:10273A000E0000000E110000000001000000000061
:10274A00110A0400040A1100000000000E0A0A0A15
:10275A000A1B00E803C800E8030FF401E803C800F5
:10276A00E8030BE803E803C800E8030AFA000101DA
:10277A00D101D10100000100030005000600080094
:10278A000A000C000D000F001100130014001600BF
:10279A00180019001B001D001E0020002200230043
:1027AA002500270028002A002B002D002E003000CB
:1027BA003100330034003600370039003A003C005B
:1027CA003D003E00400041004200440045004600F2
:1027DA00470049004A004B004C004D004E004F0094
:1027EA005000510052005300540055005600570043
:1027FA005800590059005A005B005C005C005D00FB
:10280A005D005E005F005F006000600061006100C3
:10281A00610062006200620063006300630063009B
:10282A006300630063006300640063006300630085
:10283A006300630063006300630062006200620079
:10284A00610061006100600060005F005F005E007F
:10285A005D005D005C005C005B005A005900590095
:10286A0058005700560055005400530052005100BA
:10287A0050004F004E004D004C004B004A004900EA
:10288A0047004600450044004200410040003E0027
:10289A003D003C003A00390037003600340033006E
:1028AA00310030002E002D002B002A0028002700BE
:1028BA0025002300220020001E001D001B00190015
:1028CA00180016001400130011000F000D000C0070
:1028DA000A00080006000500030001000000FFFFCF
:1028EA00FDFFFBFFFAFFF8FFF6FFF4FFF3FFF1FF2E
:1028FA00EFFFEDFFECFFEAFFE8FFE7FFE5FFE3FF8D
:10290A00E2FFE0FFDEFFDDFFDBFFD9FFD8FFD6FFE6
:10291A00D5FFD3FFD2FFD0FFCEFFCDFFCCFFCAFF3A
:10292A00C9FFC7FFC6FFC4FFC3FFC2FFC0FFBFFF87
:10293A00BEFFBCFFBBFFBAFFB9FFB7FFB6FFB5FFCB
:10294A00B4FFB3FFB2FFB1FFB0FFAFFFAEFFADFF01
:10295A00ACFFABFFAAFFA9FFA8FFA7FFA7FFA6FF2F
:10296A00A5FFA4FFA4FFA3FFA3FFA2FFA1FFA1FF4E
:10297A00A0FFA0FF9FFF9FFF9FFF9EFF9EFF9EFF5E
:10298A009DFF9DFF9DFF9DFF9DFF9DFF9DFF9DFF5D
:10299A009CFF9DFF9DFF9DFF9DFF9DFF9DFF9DFF4E
:1029AA009DFF9EFF9EFF9EFF9FFF9FFF9FFFA0FF31
:1029BA00A0FFA1FFA1FFA2FFA3FFA3FFA4FFA4FF03
:1029CA00A5FFA6FFA7FFA7FFA8FFA9FFAAFFABFFC6
:1029DA00ACFFADFFAEFFAFFFB0FFB1FFB2FFB3FF79
:1029EA00B4FFB5FFB6FFB7FFB9FFBAFFBBFFBCFF25
:1029FA00BEFFBFFFC0FFC2FFC3FFC4FFC6FFC7FFC2
:102A0A00C9FFCAFFCCFFCDFFCEFFD0FFD2FFD3FF55
:102A1A00D5FFD6FFD8FFD9FFDBFFDDFFDEFFE0FFE2
:102A2A00E2FFE3FFE5FFE7FFE8FFEAFFECFFEDFF68
:102A3A00EFFFF1FFF3FFF4FFF6FFF8FFFAFFFBFFEA
:102A4A00FDFFFFFF0000000010018C00D900B70055
:102A5A00CB005701000000008E048C00456C6563B2
:102A6A0074726F6E69634C6F61640020205B5665F7
:102A7A007273696F6E20312E30375D00432E4375B5
:102A8A00723A006D41006D570049006D5300543A87
:102A9A00006E616E00696E66006F7666002E0054E5
:102AAA00494D4552322044495341424C4544004322
:102ABA004F4E5354414E545F524553495354414E1D
:102ACA00434500432E5265733A00434F4E535441D7
:102ADA004E545F504F57455200432E506F773A007D
:102AEA005351554152455F43555252454E54005435
:102AFA005249414E474C455F43555252454E540048
:102B0A0053494E455F43555252454E5400434F4E2A
:102B1A005354414E545F43555252454E5400544902
:102B2A004D45523220454E41424C454400200076E4
:042B3A00000D0A0080
:00000001FF
